{
  "contractName": "BBronze",
  "abi": [
    {
      "constant": true,
      "inputs": [],
      "name": "getColor",
      "outputs": [
        {
          "internalType": "bytes32",
          "name": "",
          "type": "bytes32"
        }
      ],
      "payable": false,
      "stateMutability": "view",
      "type": "function"
    }
  ],
  "bytecode": "0x6080604052348015600f57600080fd5b5060a68061001e6000396000f3fe6080604052348015600f57600080fd5b506004361060285760003560e01c80639a86139b14602d575b600080fd5b60336049565b6040518082815260200191505060405180910390f35b60007f42524f4e5a45000000000000000000000000000000000000000000000000000090509056fea265627a7a7231582080d073e5da0a9d515d94f1b83155ec540b414eee524b7968d61df9f44173e9d464736f6c634300050d0032",
  "source": "\n// This program is free software: you can redistribute it and/or modify\n// it under the terms of the GNU General Public License as published by\n// the Free Software Foundation, either version 3 of the License, or\n// (at your option) any later version.\n\n// This program is distributed in the hope that it will be useful,\n// but WITHOUT ANY WARRANTY; without even the implied warranty of\n// MERCHANTABILITY or FITNESS FOR A PARTICULAR PURPOSE.  See the\n// GNU General Public License for more details.\n\n// You should have received a copy of the GNU General Public License\n// along with this program.  If not, see <http://www.gnu.org/licenses/>.\n\npragma solidity  ^0.5.13;\n\ncontract BColor {\n    function getColor()\n    external view\n    returns (bytes32);\n}\n\ncontract BBronze is BColor {\n    function getColor()\n    external view\n    returns (bytes32) {\n        return bytes32(\"BRONZE\");\n    }\n}",
  "sourcePath": "/home/jeanjack/BalancerVotingMachine/contracts/utils/interfaces/BColor.sol",
  "compiler": {
    "name": "solc",
    "version": "0.5.13+commit.5b0b510c.Emscripten.clang"
  },
  "schemaVersion": "3.4.0",
  "updatedAt": "2021-05-08T22:28:20.653Z",
  "devdoc": {
    "methods": {}
  },
  "userdoc": {
    "methods": {}
  }
}