{
  "contractName": "BConst",
  "abi": [
    {
      "constant": true,
      "inputs": [],
      "name": "BONE",
      "outputs": [
        {
          "internalType": "uint256",
          "name": "",
          "type": "uint256"
        }
      ],
      "payable": false,
      "stateMutability": "view",
      "type": "function"
    },
    {
      "constant": true,
      "inputs": [],
      "name": "BPOW_PRECISION",
      "outputs": [
        {
          "internalType": "uint256",
          "name": "",
          "type": "uint256"
        }
      ],
      "payable": false,
      "stateMutability": "view",
      "type": "function"
    },
    {
      "constant": true,
      "inputs": [],
      "name": "EXIT_FEE",
      "outputs": [
        {
          "internalType": "uint256",
          "name": "",
          "type": "uint256"
        }
      ],
      "payable": false,
      "stateMutability": "view",
      "type": "function"
    },
    {
      "constant": true,
      "inputs": [],
      "name": "INIT_POOL_SUPPLY",
      "outputs": [
        {
          "internalType": "uint256",
          "name": "",
          "type": "uint256"
        }
      ],
      "payable": false,
      "stateMutability": "view",
      "type": "function"
    },
    {
      "constant": true,
      "inputs": [],
      "name": "MAX_BOUND_TOKENS",
      "outputs": [
        {
          "internalType": "uint256",
          "name": "",
          "type": "uint256"
        }
      ],
      "payable": false,
      "stateMutability": "view",
      "type": "function"
    },
    {
      "constant": true,
      "inputs": [],
      "name": "MAX_BPOW_BASE",
      "outputs": [
        {
          "internalType": "uint256",
          "name": "",
          "type": "uint256"
        }
      ],
      "payable": false,
      "stateMutability": "view",
      "type": "function"
    },
    {
      "constant": true,
      "inputs": [],
      "name": "MAX_FEE",
      "outputs": [
        {
          "internalType": "uint256",
          "name": "",
          "type": "uint256"
        }
      ],
      "payable": false,
      "stateMutability": "view",
      "type": "function"
    },
    {
      "constant": true,
      "inputs": [],
      "name": "MAX_IN_RATIO",
      "outputs": [
        {
          "internalType": "uint256",
          "name": "",
          "type": "uint256"
        }
      ],
      "payable": false,
      "stateMutability": "view",
      "type": "function"
    },
    {
      "constant": true,
      "inputs": [],
      "name": "MAX_OUT_RATIO",
      "outputs": [
        {
          "internalType": "uint256",
          "name": "",
          "type": "uint256"
        }
      ],
      "payable": false,
      "stateMutability": "view",
      "type": "function"
    },
    {
      "constant": true,
      "inputs": [],
      "name": "MAX_TOTAL_WEIGHT",
      "outputs": [
        {
          "internalType": "uint256",
          "name": "",
          "type": "uint256"
        }
      ],
      "payable": false,
      "stateMutability": "view",
      "type": "function"
    },
    {
      "constant": true,
      "inputs": [],
      "name": "MAX_WEIGHT",
      "outputs": [
        {
          "internalType": "uint256",
          "name": "",
          "type": "uint256"
        }
      ],
      "payable": false,
      "stateMutability": "view",
      "type": "function"
    },
    {
      "constant": true,
      "inputs": [],
      "name": "MIN_BALANCE",
      "outputs": [
        {
          "internalType": "uint256",
          "name": "",
          "type": "uint256"
        }
      ],
      "payable": false,
      "stateMutability": "view",
      "type": "function"
    },
    {
      "constant": true,
      "inputs": [],
      "name": "MIN_BOUND_TOKENS",
      "outputs": [
        {
          "internalType": "uint256",
          "name": "",
          "type": "uint256"
        }
      ],
      "payable": false,
      "stateMutability": "view",
      "type": "function"
    },
    {
      "constant": true,
      "inputs": [],
      "name": "MIN_BPOW_BASE",
      "outputs": [
        {
          "internalType": "uint256",
          "name": "",
          "type": "uint256"
        }
      ],
      "payable": false,
      "stateMutability": "view",
      "type": "function"
    },
    {
      "constant": true,
      "inputs": [],
      "name": "MIN_FEE",
      "outputs": [
        {
          "internalType": "uint256",
          "name": "",
          "type": "uint256"
        }
      ],
      "payable": false,
      "stateMutability": "view",
      "type": "function"
    },
    {
      "constant": true,
      "inputs": [],
      "name": "MIN_WEIGHT",
      "outputs": [
        {
          "internalType": "uint256",
          "name": "",
          "type": "uint256"
        }
      ],
      "payable": false,
      "stateMutability": "view",
      "type": "function"
    },
    {
      "constant": true,
      "inputs": [],
      "name": "getColor",
      "outputs": [
        {
          "internalType": "bytes32",
          "name": "",
          "type": "bytes32"
        }
      ],
      "payable": false,
      "stateMutability": "view",
      "type": "function"
    }
  ],
  "bytecode": "0x608060405234801561001057600080fd5b50610467806100206000396000f3fe608060405234801561001057600080fd5b506004361061010b5760003560e01c8063b0e0d136116100a2578063bc694ea211610071578063bc694ea214610278578063c36596a614610296578063c6580d12146102b4578063e4a28a52146102d2578063ec093021146102f05761010b565b8063b0e0d13614610200578063b7b800a41461021e578063ba019dab1461023c578063bc063e1a1461025a5761010b565b8063867378c5116100de578063867378c5146101885780639381cd2b146101a6578063992e2a92146101c45780639a86139b146101e25761010b565b806309a3bbe414610110578063189d00ca1461012e578063218b53821461014c57806376c7a3c71461016a575b600080fd5b61011861030e565b6040518082815260200191505060405180910390f35b61013661031d565b6040518082815260200191505060405180910390f35b610154610337565b6040518082815260200191505060405180910390f35b610172610343565b6040518082815260200191505060405180910390f35b61019061035b565b6040518082815260200191505060405180910390f35b6101ae610375565b6040518082815260200191505060405180910390f35b6101cc610384565b6040518082815260200191505060405180910390f35b6101ea61039d565b6040518082815260200191505060405180910390f35b6102086103c5565b6040518082815260200191505060405180910390f35b6102266103ca565b6040518082815260200191505060405180910390f35b6102446103cf565b6040518082815260200191505060405180910390f35b6102626103d4565b6040518082815260200191505060405180910390f35b6102806103ea565b6040518082815260200191505060405180910390f35b61029e6103fc565b6040518082815260200191505060405180910390f35b6102bc610408565b6040518082815260200191505060405180910390f35b6102da61040d565b6040518082815260200191505060405180910390f35b6102f861041c565b6040518082815260200191505060405180910390f35b6032670de0b6b3a76400000281565b6402540be400670de0b6b3a76400008161033357fe5b0481565b670de0b6b3a764000081565b620f4240670de0b6b3a76400008161035757fe5b0481565b64e8d4a51000670de0b6b3a76400008161037157fe5b0481565b6064670de0b6b3a76400000281565b60016003670de0b6b3a76400008161039857fe5b040181565b60007f42524f4e5a450000000000000000000000000000000000000000000000000000905090565b600881565b600281565b600181565b600a670de0b6b3a7640000816103e657fe5b0481565b6001670de0b6b3a76400006002020381565b670de0b6b3a764000081565b600081565b6032670de0b6b3a76400000281565b6002670de0b6b3a76400008161042e57fe5b048156fea265627a7a723158205c28953b9412d71d4ab2a883d788d2fd656db5884a9dabfbdd3b769d9b9bec3d64736f6c634300050d0032",
  "source": "// This program is free software: you can redistribute it and/or modify\n// it under the terms of the GNU General Public License as published by\n// the Free Software Foundation, either version 3 of the License, or\n// (at your option) any later version.\n\n// This program is distributed in the hope that it will be useful,\n// but WITHOUT ANY WARRANTY; without even the implied warranty of\n// MERCHANTABILITY or FITNESS FOR A PARTICULAR PURPOSE.  See the\n// GNU General Public License for more details.\n\n// You should have received a copy of the GNU General Public License\n// along with this program.  If not, see <http://www.gnu.org/licenses/>.\n\npragma solidity  ^0.5.13;\n\nimport \"./BColor.sol\";\n\ncontract BConst is BBronze {\n    uint public constant BONE              = 10**18;\n\n    uint public constant MIN_BOUND_TOKENS  = 2;\n    uint public constant MAX_BOUND_TOKENS  = 8;\n\n    uint public constant MIN_FEE           = BONE / 10**6;\n    uint public constant MAX_FEE           = BONE / 10;\n    uint public constant EXIT_FEE          = 0;\n\n    uint public constant MIN_WEIGHT        = BONE;\n    uint public constant MAX_WEIGHT        = BONE * 50;\n    uint public constant MAX_TOTAL_WEIGHT  = BONE * 50;\n    uint public constant MIN_BALANCE       = BONE / 10**12;\n\n    uint public constant INIT_POOL_SUPPLY  = BONE * 100;\n\n    uint public constant MIN_BPOW_BASE     = 1 wei;\n    uint public constant MAX_BPOW_BASE     = (2 * BONE) - 1 wei;\n    uint public constant BPOW_PRECISION    = BONE / 10**10;\n\n    uint public constant MAX_IN_RATIO      = BONE / 2;\n    uint public constant MAX_OUT_RATIO     = (BONE / 3) + 1 wei;\n}",
  "sourcePath": "/home/jeanjack/BalancerVotingMachine/contracts/utils/interfaces/BConst.sol",
  "compiler": {
    "name": "solc",
    "version": "0.5.13+commit.5b0b510c.Emscripten.clang"
  },
  "schemaVersion": "3.4.0",
  "updatedAt": "2021-05-08T22:28:20.654Z",
  "devdoc": {
    "methods": {}
  },
  "userdoc": {
    "methods": {}
  }
}