{
  "contractName": "VotingMachine",
  "abi": [
    {
      "inputs": [
        {
          "internalType": "contract BToken",
          "name": "_balancerLPToken",
          "type": "address"
        }
      ],
      "payable": false,
      "stateMutability": "nonpayable",
      "type": "constructor"
    },
    {
      "anonymous": false,
      "inputs": [
        {
          "indexed": true,
          "internalType": "address",
          "name": "user",
          "type": "address"
        },
        {
          "indexed": false,
          "internalType": "uint256",
          "name": "amount",
          "type": "uint256"
        }
      ],
      "name": "Staked",
      "type": "event"
    },
    {
      "anonymous": false,
      "inputs": [
        {
          "indexed": true,
          "internalType": "uint256",
          "name": "votingId",
          "type": "uint256"
        },
        {
          "indexed": false,
          "internalType": "address",
          "name": "voter",
          "type": "address"
        },
        {
          "indexed": false,
          "internalType": "enum VotingMachine.VoteStatus",
          "name": "status",
          "type": "uint8"
        },
        {
          "indexed": false,
          "internalType": "uint256",
          "name": "voteWeight",
          "type": "uint256"
        }
      ],
      "name": "VotePlaced",
      "type": "event"
    },
    {
      "anonymous": false,
      "inputs": [
        {
          "indexed": true,
          "internalType": "uint256",
          "name": "votingId",
          "type": "uint256"
        }
      ],
      "name": "VoteStarted",
      "type": "event"
    },
    {
      "anonymous": false,
      "inputs": [
        {
          "indexed": true,
          "internalType": "uint256",
          "name": "votingId",
          "type": "uint256"
        },
        {
          "indexed": false,
          "internalType": "enum VotingMachine.VotingResult",
          "name": "result",
          "type": "uint8"
        }
      ],
      "name": "VotingExecuted",
      "type": "event"
    },
    {
      "anonymous": false,
      "inputs": [
        {
          "indexed": true,
          "internalType": "address",
          "name": "user",
          "type": "address"
        },
        {
          "indexed": false,
          "internalType": "uint256",
          "name": "amount",
          "type": "uint256"
        }
      ],
      "name": "Withdrawn",
      "type": "event"
    },
    {
      "constant": true,
      "inputs": [],
      "name": "balancerLPToken",
      "outputs": [
        {
          "internalType": "contract BToken",
          "name": "",
          "type": "address"
        }
      ],
      "payable": false,
      "stateMutability": "view",
      "type": "function"
    },
    {
      "constant": false,
      "inputs": [
        {
          "internalType": "uint256",
          "name": "duration",
          "type": "uint256"
        },
        {
          "internalType": "string",
          "name": "description",
          "type": "string"
        }
      ],
      "name": "startVoting",
      "outputs": [],
      "payable": false,
      "stateMutability": "nonpayable",
      "type": "function"
    },
    {
      "constant": false,
      "inputs": [
        {
          "internalType": "uint256",
          "name": "votingId",
          "type": "uint256"
        },
        {
          "internalType": "enum VotingMachine.VoteStatus",
          "name": "status",
          "type": "uint8"
        }
      ],
      "name": "vote",
      "outputs": [],
      "payable": false,
      "stateMutability": "nonpayable",
      "type": "function"
    },
    {
      "constant": false,
      "inputs": [
        {
          "internalType": "uint256",
          "name": "votingId",
          "type": "uint256"
        }
      ],
      "name": "executeVoting",
      "outputs": [],
      "payable": false,
      "stateMutability": "nonpayable",
      "type": "function"
    },
    {
      "constant": false,
      "inputs": [
        {
          "internalType": "uint256",
          "name": "amount",
          "type": "uint256"
        }
      ],
      "name": "stake",
      "outputs": [],
      "payable": false,
      "stateMutability": "nonpayable",
      "type": "function"
    },
    {
      "constant": false,
      "inputs": [
        {
          "internalType": "uint256",
          "name": "amount",
          "type": "uint256"
        }
      ],
      "name": "withdraw",
      "outputs": [],
      "payable": false,
      "stateMutability": "nonpayable",
      "type": "function"
    },
    {
      "constant": true,
      "inputs": [
        {
          "internalType": "address",
          "name": "account",
          "type": "address"
        }
      ],
      "name": "balanceOf",
      "outputs": [
        {
          "internalType": "uint256",
          "name": "",
          "type": "uint256"
        }
      ],
      "payable": false,
      "stateMutability": "view",
      "type": "function"
    },
    {
      "constant": true,
      "inputs": [
        {
          "internalType": "uint256",
          "name": "votingId",
          "type": "uint256"
        }
      ],
      "name": "getVote",
      "outputs": [
        {
          "internalType": "uint256",
          "name": "createdAt",
          "type": "uint256"
        },
        {
          "internalType": "uint256",
          "name": "duration",
          "type": "uint256"
        },
        {
          "internalType": "string",
          "name": "description",
          "type": "string"
        },
        {
          "internalType": "bool",
          "name": "executed",
          "type": "bool"
        },
        {
          "internalType": "uint256",
          "name": "totalAccepted",
          "type": "uint256"
        },
        {
          "internalType": "uint256",
          "name": "totalRejected",
          "type": "uint256"
        }
      ],
      "payable": false,
      "stateMutability": "view",
      "type": "function"
    }
  ],
  "bytecode": "0x6080604052603260015534801561001557600080fd5b506040516118ac3803806118ac8339818101604052602081101561003857600080fd5b81019080805190602001909291905050506001600081905550600073ffffffffffffffffffffffffffffffffffffffff168173ffffffffffffffffffffffffffffffffffffffff1614156100d7576040517f08c379a00000000000000000000000000000000000000000000000000000000081526004018080602001828103825260268152602001806118866026913960400191505060405180910390fd5b80600560006101000a81548173ffffffffffffffffffffffffffffffffffffffff021916908373ffffffffffffffffffffffffffffffffffffffff1602179055505061175e806101286000396000f3fe608060405234801561001057600080fd5b50600436106100885760003560e01c8063a694fc3a1161005b578063a694fc3a1461021c578063b1330ca91461024a578063eeab3833146102cd578063f3d912431461031757610088565b80632e1a7d4d1461008d5780635a55c1f0146100bb57806370a0823114610189578063943e8216146101e1575b600080fd5b6100b9600480360360208110156100a357600080fd5b8101908080359060200190929190505050610345565b005b6100e7600480360360208110156100d157600080fd5b8101908080359060200190929190505050610614565b604051808781526020018681526020018060200185151515158152602001848152602001838152602001828103825286818151815260200191508051906020019080838360005b8381101561014957808201518184015260208101905061012e565b50505050905090810190601f1680156101765780820380516001836020036101000a031916815260200191505b5097505050505050505060405180910390f35b6101cb6004803603602081101561019f57600080fd5b81019080803573ffffffffffffffffffffffffffffffffffffffff169060200190929190505050610710565b6040518082815260200191505060405180910390f35b61021a600480360360408110156101f757600080fd5b8101908080359060200190929190803560ff169060200190929190505050610759565b005b6102486004803603602081101561023257600080fd5b8101908080359060200190929190505050610baf565b005b6102cb6004803603604081101561026057600080fd5b81019080803590602001909291908035906020019064010000000081111561028757600080fd5b82018360208201111561029957600080fd5b803590602001918460018302840111640100000000831117156102bb57600080fd5b9091929391929390505050610eb2565b005b6102d5611062565b604051808273ffffffffffffffffffffffffffffffffffffffff1673ffffffffffffffffffffffffffffffffffffffff16815260200191505060405180910390f35b6103436004803603602081101561032d57600080fd5b8101908080359060200190929190505050611088565b005b60016000808282540192505081905550600080549050600082116103d1576040517f08c379a00000000000000000000000000000000000000000000000000000000081526004018080602001828103825260208152602001807f566f74696e674d616368696e653a2043616e6e6f74207769746864726177203081525060200191505060405180910390fd5b61042382600460003373ffffffffffffffffffffffffffffffffffffffff1673ffffffffffffffffffffffffffffffffffffffff1681526020019081526020016000205461135e90919063ffffffff16565b600460003373ffffffffffffffffffffffffffffffffffffffff1673ffffffffffffffffffffffffffffffffffffffff16815260200190815260200160002081905550600560009054906101000a900473ffffffffffffffffffffffffffffffffffffffff1673ffffffffffffffffffffffffffffffffffffffff1663a9059cbb33846040518363ffffffff1660e01b8152600401808373ffffffffffffffffffffffffffffffffffffffff1673ffffffffffffffffffffffffffffffffffffffff16815260200182815260200192505050602060405180830381600087803b15801561050f57600080fd5b505af1158015610523573d6000803e3d6000fd5b505050506040513d602081101561053957600080fd5b8101908080519060200190929190505050503373ffffffffffffffffffffffffffffffffffffffff167f7084f5476618d8e60b11ef0d7d3f06914655adb8793e28ff7f018d4c76d505d5836040518082815260200191505060405180910390a26000548114610610576040517f08c379a000000000000000000000000000000000000000000000000000000000815260040180806020018281038252601f8152602001807f5265656e7472616e637947756172643a207265656e7472616e742063616c6c0081525060200191505060405180910390fd5b5050565b600080606060008060008060036000898152602001908152602001600020905080600101548160020154826006018360050160009054906101000a900460ff1684600301548560040154838054600181600116156101000203166002900480601f0160208091040260200160405190810160405280929190818152602001828054600181600116156101000203166002900480156106f35780601f106106c8576101008083540402835291602001916106f3565b820191906000526020600020905b8154815290600101906020018083116106d657829003601f168201915b505050505093509650965096509650965096505091939550919395565b6000600460008373ffffffffffffffffffffffffffffffffffffffff1673ffffffffffffffffffffffffffffffffffffffff168152602001908152602001600020549050919050565b600060036000848152602001908152602001600020905060008160010154116107cd576040517f08c379a000000000000000000000000000000000000000000000000000000000815260040180806020018281038252602281526020018061161c6022913960400191505060405180910390fd5b600060028111156107da57fe5b8260028111156107e657fe5b141561085a576040517f08c379a000000000000000000000000000000000000000000000000000000000815260040180806020018281038252601b8152602001807f566f74696e674d616368696e653a20496e76616c696420766f7465000000000081525060200191505060405180910390fd5b42610876826002015483600101546113a890919063ffffffff16565b116108e9576040517f08c379a000000000000000000000000000000000000000000000000000000000815260040180806020018281038252601f8152602001807f566f74696e674d616368696e653a20546f6f206c61746520746f20766f74650081525060200191505060405180910390fd5b600060028111156108f657fe5b8160070160003373ffffffffffffffffffffffffffffffffffffffff1673ffffffffffffffffffffffffffffffffffffffff16815260200190815260200160002060009054906101000a900460ff16600281111561095057fe5b146109a6576040517f08c379a00000000000000000000000000000000000000000000000000000000081526004018080602001828103825260268152602001806117046026913960400191505060405180910390fd5b818160070160003373ffffffffffffffffffffffffffffffffffffffff1673ffffffffffffffffffffffffffffffffffffffff16815260200190815260200160002060006101000a81548160ff02191690836002811115610a0357fe5b021790555060016002811115610a1557fe5b826002811115610a2157fe5b1415610a8a57610a7d600460003373ffffffffffffffffffffffffffffffffffffffff1673ffffffffffffffffffffffffffffffffffffffff1681526020019081526020016000205482600301546113a890919063ffffffff16565b8160030181905550610ae9565b610ae0600460003373ffffffffffffffffffffffffffffffffffffffff1673ffffffffffffffffffffffffffffffffffffffff1681526020019081526020016000205482600401546113a890919063ffffffff16565b81600401819055505b827f262cbc8b034c9e058523fbc72c11658493b45255f521158da4c6da8e6e01d8683384600460003373ffffffffffffffffffffffffffffffffffffffff1673ffffffffffffffffffffffffffffffffffffffff16815260200190815260200160002054604051808473ffffffffffffffffffffffffffffffffffffffff1673ffffffffffffffffffffffffffffffffffffffff168152602001836002811115610b8f57fe5b60ff168152602001828152602001935050505060405180910390a2505050565b6001600080828254019250508190555060008054905060008211610c3b576040517f08c379a000000000000000000000000000000000000000000000000000000000815260040180806020018281038252601d8152602001807f566f74696e674d616368696e653a2063616e6e6f74207374616b65203000000081525060200191505060405180910390fd5b610c8d82600460003373ffffffffffffffffffffffffffffffffffffffff1673ffffffffffffffffffffffffffffffffffffffff168152602001908152602001600020546113a890919063ffffffff16565b600460003373ffffffffffffffffffffffffffffffffffffffff1673ffffffffffffffffffffffffffffffffffffffff16815260200190815260200160002081905550600560009054906101000a900473ffffffffffffffffffffffffffffffffffffffff1673ffffffffffffffffffffffffffffffffffffffff166323b872dd3330856040518463ffffffff1660e01b8152600401808473ffffffffffffffffffffffffffffffffffffffff1673ffffffffffffffffffffffffffffffffffffffff1681526020018373ffffffffffffffffffffffffffffffffffffffff1673ffffffffffffffffffffffffffffffffffffffff1681526020018281526020019350505050602060405180830381600087803b158015610dad57600080fd5b505af1158015610dc1573d6000803e3d6000fd5b505050506040513d6020811015610dd757600080fd5b8101908080519060200190929190505050503373ffffffffffffffffffffffffffffffffffffffff167f9e71bc8eea02a63969f509818f2dafb9254532904319f9dbda79b67bd34a5f3d836040518082815260200191505060405180910390a26000548114610eae576040517f08c379a000000000000000000000000000000000000000000000000000000000815260040180806020018281038252601f8152602001807f5265656e7472616e637947756172643a207265656e7472616e742063616c6c0081525060200191505060405180910390fd5b5050565b6000610ebd33610710565b11610f13576040517f08c379a000000000000000000000000000000000000000000000000000000000815260040180806020018281038252602d81526020018061163e602d913960400191505060405180910390fd5b6000600260008154809291906001019190505590506040518060e00160405280600081526020014281526020016201518086028152602001600081526020016000815260200160001515815260200184848080601f016020809104026020016040519081016040528093929190818152602001838380828437600081840152601f19601f8201169050808301925050505050505081525060036000838152602001908152602001600020600082015181600001556020820151816001015560408201518160020155606082015181600301556080820151816004015560a08201518160050160006101000a81548160ff02191690831515021790555060c082015181600601908051906020019061102b929190611576565b50905050807fa80808a30283fc2c95db95a081ef4462dd38bb7854e6569e34c0b501eed90f4e60405160405180910390a250505050565b600560009054906101000a900473ffffffffffffffffffffffffffffffffffffffff1681565b600060036000838152602001908152602001600020905060008160010154116110fc576040517f08c379a000000000000000000000000000000000000000000000000000000000815260040180806020018281038252602881526020018061168d6028913960400191505060405180910390fd5b8060050160009054906101000a900460ff1615611164576040517f08c379a000000000000000000000000000000000000000000000000000000000815260040180806020018281038252602e8152602001806116d6602e913960400191505060405180910390fd5b42611180826002015483600101546113a890919063ffffffff16565b106111d6576040517f08c379a000000000000000000000000000000000000000000000000000000000815260040180806020018281038252602281526020018061166b6022913960400191505060405180910390fd5b6000600560009054906101000a900473ffffffffffffffffffffffffffffffffffffffff1673ffffffffffffffffffffffffffffffffffffffff166318160ddd6040518163ffffffff1660e01b815260040160206040518083038186803b15801561124057600080fd5b505afa158015611254573d6000803e3d6000fd5b505050506040513d602081101561126a57600080fd5b81019080805190602001909291905050509050600060646112966001548461143090919063ffffffff16565b8161129d57fe5b0490506000816112be856004015486600301546113a890919063ffffffff16565b106112e6578360040154846003015411156112dc57600190506112e1565b600290505b6112eb565b600390505b82846000018190555060018460050160006101000a81548160ff021916908315150217905550847fa5c636d630228897b10899060219257478563bb8acbc93be08cd12c1eb1bb7ef826040518082600381111561134457fe5b60ff16815260200191505060405180910390a25050505050565b60006113a083836040518060400160405280601e81526020017f536166654d6174683a207375627472616374696f6e206f766572666c6f7700008152506114b6565b905092915050565b600080828401905083811015611426576040517f08c379a000000000000000000000000000000000000000000000000000000000815260040180806020018281038252601b8152602001807f536166654d6174683a206164646974696f6e206f766572666c6f77000000000081525060200191505060405180910390fd5b8091505092915050565b60008083141561144357600090506114b0565b600082840290508284828161145457fe5b04146114ab576040517f08c379a00000000000000000000000000000000000000000000000000000000081526004018080602001828103825260218152602001806116b56021913960400191505060405180910390fd5b809150505b92915050565b6000838311158290611563576040517f08c379a00000000000000000000000000000000000000000000000000000000081526004018080602001828103825283818151815260200191508051906020019080838360005b8381101561152857808201518184015260208101905061150d565b50505050905090810190601f1680156115555780820380516001836020036101000a031916815260200191505b509250505060405180910390fd5b5060008385039050809150509392505050565b828054600181600116156101000203166002900490600052602060002090601f016020900481019282601f106115b757805160ff19168380011785556115e5565b828001600101855582156115e5579182015b828111156115e45782518255916020019190600101906115c9565b5b5090506115f291906115f6565b5090565b61161891905b808211156116145760008160009055506001016115fc565b5090565b9056fe566f74696e674d616368696e653a20566f746520646f6573206e6f74206578697374566f74696e674d616368696e653a20766f74652063726561746f722073686f756c642068617665207374616b65566f74696e674d616368696e653a20546f206561726c7920746f2065786563757465566f74696e674d616368696e653a2054686520766f74696e6720646f6573206e6f74206578697374536166654d6174683a206d756c7469706c69636174696f6e206f766572666c6f77566f74696e674d616368696e653a2054686520766f74696e672077617320616c7265616479206578656375746564566f74696e674d616368696e653a2054686520766f74657220616c726561647920766f746564a265627a7a72315820e2d45d45ed4e8e177960e0457b5dafe40a5dadbc90df8f7a700bc925c419d78064736f6c634300050d0032566f74696e674d616368696e653a204c5020746f6b656e2063616e6e6f74206265206e756c6c",
  "source": "pragma solidity ^0.5.13;\n\nimport \"@openzeppelin/contracts/math/SafeMath.sol\";\nimport \"openzeppelin-solidity/contracts/utils/ReentrancyGuard.sol\";\nimport \"./utils/interfaces/BToken.sol\";\n\ncontract VotingMachine is ReentrancyGuard {\n    using SafeMath for uint256;\n\n    uint256 VOTING_THRESHOLD_PERCENT = 50;\n\n    enum VoteStatus {\n        NONE, ACCEPT, REJECT\n    }\n\n    enum VotingResult {\n        NONE, ACCEPT, REJECT, NOT_APPLIED\n    }\n\n    struct VotingDetails {\n        uint256 totalSupply;\n        uint256 createdAt;\n        uint256 duration;\n        uint256 totalAccepted;\n        uint256 totalRejected;\n        bool executed;\n        string description;\n        mapping(address => VoteStatus) voteByAccount;\n    }\n\n    uint256 votingIdsCounter;\n    mapping(uint256 => VotingDetails) private votings;\n    mapping(address => uint256) private balances;\n    BToken public balancerLPToken;\n\n    event VoteStarted(uint256 indexed votingId);\n    event VotePlaced(uint256 indexed votingId, address voter, VoteStatus status, uint256 voteWeight);\n    event VotingExecuted(uint256 indexed votingId, VotingResult result);\n    event Staked(address indexed user, uint256 amount);\n    event Withdrawn(address indexed user, uint256 amount);\n\n    constructor(BToken _balancerLPToken) public {\n        require(_balancerLPToken != BToken(0), \"VotingMachine: LP token cannot be null\");\n        balancerLPToken = _balancerLPToken;\n    }\n\n    function startVoting(uint256 duration, string calldata description) external {\n        // checking inputs\n        require(balanceOf(msg.sender) > 0, \"VotingMachine: vote creator should have stake\");\n\n        // creating new voting\n        uint256 votingId = votingIdsCounter++;\n\n        votings[votingId] = VotingDetails(\n            0,\n            now,\n            duration * 24 hours,\n            0,\n            0,\n            false,\n            description\n        );\n\n        emit VoteStarted(votingId);\n    }\n\n    function vote(uint256 votingId, VoteStatus status) external {\n        VotingDetails storage votingDetails = votings[votingId];\n\n        // checking inputs\n        require(votingDetails.createdAt > 0, \"VotingMachine: Vote does not exist\");\n        require(status != VoteStatus.NONE, \"VotingMachine: Invalid vote\");\n        require(votingDetails.createdAt.add(votingDetails.duration) > now, \"VotingMachine: Too late to vote\");\n        require(votingDetails.voteByAccount[msg.sender] == VoteStatus.NONE, \"VotingMachine: The voter already voted\");\n\n        votingDetails.voteByAccount[msg.sender] = status;\n\n        if (status == VoteStatus.ACCEPT) {\n            votingDetails.totalAccepted = votingDetails.totalAccepted.add(balances[msg.sender]);\n        } else {\n            votingDetails.totalRejected = votingDetails.totalRejected.add(balances[msg.sender]);\n        }\n\n        emit VotePlaced(votingId, msg.sender, status, balances[msg.sender]);\n    }\n\n    function executeVoting(uint256 votingId) external {\n        VotingDetails storage votingDetails = votings[votingId];\n\n        // checking inputs\n        require(votingDetails.createdAt > 0, \"VotingMachine: The voting does not exist\");\n        require(!votingDetails.executed, \"VotingMachine: The voting was already executed\");\n        require(votingDetails.createdAt.add(votingDetails.duration) < now, \"VotingMachine: To early to execute\");\n\n        // calculating voting result\n        //  total voted weight need to be more than 50% of total supply\n        uint256 totalSupplySnapshot = balancerLPToken.totalSupply();\n        uint256 votingThreshold = totalSupplySnapshot.mul(VOTING_THRESHOLD_PERCENT) / 100;\n        VotingResult result;\n        if (votingDetails.totalAccepted.add(votingDetails.totalRejected) >= votingThreshold) {\n            if (votingDetails.totalAccepted > votingDetails.totalRejected) {\n                result = VotingResult.ACCEPT;\n            } else {\n                result = VotingResult.REJECT;\n            }\n        } else {\n            result = VotingResult.NOT_APPLIED;\n        }\n\n        votingDetails.totalSupply = totalSupplySnapshot;\n        votingDetails.executed = true;\n        emit VotingExecuted(votingId, result);\n    }\n\n    function stake(uint256 amount) public nonReentrant {\n        require(amount > 0, \"VotingMachine: cannot stake 0\");\n        balances[msg.sender] = balances[msg.sender].add(amount);\n        balancerLPToken.transferFrom(msg.sender, address(this), amount);\n        emit Staked(msg.sender, amount);\n    }\n\n    function withdraw(uint256 amount) public nonReentrant {\n        require(amount > 0, \"VotingMachine: Cannot withdraw 0\");\n        balances[msg.sender] = balances[msg.sender].sub(amount);\n        balancerLPToken.transfer(msg.sender, amount);\n        emit Withdrawn(msg.sender, amount);\n    }\n\n    function balanceOf(address account) public view returns (uint256) {\n        return balances[account];\n    }\n\n    function getVote(uint256 votingId) external view returns (\n        uint256 createdAt,\n        uint256 duration,\n        string memory description,\n        bool executed,\n        uint256 totalAccepted,\n        uint256 totalRejected\n    ) {\n        VotingDetails storage votingDetails = votings[votingId];\n\n        return (\n        votingDetails.createdAt,\n        votingDetails.duration,\n        votingDetails.description,\n        votingDetails.executed,\n        votingDetails.totalAccepted,\n        votingDetails.totalRejected\n        );\n    }\n}\n",
  "sourcePath": "/home/jeanjack/BalancerVotingMachine/contracts/VotingMachine.sol",
  "compiler": {
    "name": "solc",
    "version": "0.5.13+commit.5b0b510c.Emscripten.clang"
  },
  "schemaVersion": "3.4.0",
  "updatedAt": "2021-05-11T23:38:30.560Z",
  "devdoc": {
    "methods": {}
  },
  "userdoc": {
    "methods": {}
  }
}