{
  "contractName": "VotingMachine",
  "abi": [
    {
      "inputs": [
        {
          "internalType": "contract BToken",
          "name": "_bToken",
          "type": "address"
        }
      ],
      "payable": false,
      "stateMutability": "nonpayable",
      "type": "constructor"
    },
    {
      "anonymous": false,
      "inputs": [
        {
          "indexed": true,
          "internalType": "address",
          "name": "user",
          "type": "address"
        },
        {
          "indexed": false,
          "internalType": "uint256",
          "name": "amount",
          "type": "uint256"
        }
      ],
      "name": "Staked",
      "type": "event"
    },
    {
      "constant": true,
      "inputs": [],
      "name": "balancerLiquidityToken",
      "outputs": [
        {
          "internalType": "contract BToken",
          "name": "",
          "type": "address"
        }
      ],
      "payable": false,
      "stateMutability": "view",
      "type": "function"
    },
    {
      "constant": false,
      "inputs": [
        {
          "internalType": "uint256",
          "name": "amount",
          "type": "uint256"
        }
      ],
      "name": "stake",
      "outputs": [],
      "payable": false,
      "stateMutability": "nonpayable",
      "type": "function"
    },
    {
      "constant": true,
      "inputs": [
        {
          "internalType": "address",
          "name": "account",
          "type": "address"
        }
      ],
      "name": "balanceOf",
      "outputs": [
        {
          "internalType": "uint256",
          "name": "",
          "type": "uint256"
        }
      ],
      "payable": false,
      "stateMutability": "view",
      "type": "function"
    }
  ],
  "bytecode": "0x608060405234801561001057600080fd5b506040516106a73803806106a78339818101604052602081101561003357600080fd5b81019080805190602001909291905050506001600081905550600073ffffffffffffffffffffffffffffffffffffffff168173ffffffffffffffffffffffffffffffffffffffff1614156100d2576040517f08c379a00000000000000000000000000000000000000000000000000000000081526004018080602001828103825260248152602001806106836024913960400191505060405180910390fd5b80600360006101000a81548173ffffffffffffffffffffffffffffffffffffffff021916908373ffffffffffffffffffffffffffffffffffffffff16021790555050610560806101236000396000f3fe608060405234801561001057600080fd5b50600436106100415760003560e01c806370a08231146100465780639aa593fc1461009e578063a694fc3a146100e8575b600080fd5b6100886004803603602081101561005c57600080fd5b81019080803573ffffffffffffffffffffffffffffffffffffffff169060200190929190505050610116565b6040518082815260200191505060405180910390f35b6100a661015f565b604051808273ffffffffffffffffffffffffffffffffffffffff1673ffffffffffffffffffffffffffffffffffffffff16815260200191505060405180910390f35b610114600480360360208110156100fe57600080fd5b8101908080359060200190929190505050610185565b005b6000600260008373ffffffffffffffffffffffffffffffffffffffff1673ffffffffffffffffffffffffffffffffffffffff168152602001908152602001600020549050919050565b600360009054906101000a900473ffffffffffffffffffffffffffffffffffffffff1681565b6001600080828254019250508190555060008054905060008211610211576040517f08c379a000000000000000000000000000000000000000000000000000000000815260040180806020018281038252601d8152602001807f566f74696e674d616368696e653a2063616e6e6f74207374616b65203000000081525060200191505060405180910390fd5b610226826001546104a390919063ffffffff16565b60018190555061027e82600260003373ffffffffffffffffffffffffffffffffffffffff1673ffffffffffffffffffffffffffffffffffffffff168152602001908152602001600020546104a390919063ffffffff16565b600260003373ffffffffffffffffffffffffffffffffffffffff1673ffffffffffffffffffffffffffffffffffffffff16815260200190815260200160002081905550600360009054906101000a900473ffffffffffffffffffffffffffffffffffffffff1673ffffffffffffffffffffffffffffffffffffffff166323b872dd3330856040518463ffffffff1660e01b8152600401808473ffffffffffffffffffffffffffffffffffffffff1673ffffffffffffffffffffffffffffffffffffffff1681526020018373ffffffffffffffffffffffffffffffffffffffff1673ffffffffffffffffffffffffffffffffffffffff1681526020018281526020019350505050602060405180830381600087803b15801561039e57600080fd5b505af11580156103b2573d6000803e3d6000fd5b505050506040513d60208110156103c857600080fd5b8101908080519060200190929190505050503373ffffffffffffffffffffffffffffffffffffffff167f9e71bc8eea02a63969f509818f2dafb9254532904319f9dbda79b67bd34a5f3d836040518082815260200191505060405180910390a2600054811461049f576040517f08c379a000000000000000000000000000000000000000000000000000000000815260040180806020018281038252601f8152602001807f5265656e7472616e637947756172643a207265656e7472616e742063616c6c0081525060200191505060405180910390fd5b5050565b600080828401905083811015610521576040517f08c379a000000000000000000000000000000000000000000000000000000000815260040180806020018281038252601b8152602001807f536166654d6174683a206164646974696f6e206f766572666c6f77000000000081525060200191505060405180910390fd5b809150509291505056fea265627a7a723158207a30e0832e19aad7be20ba6f8072c3dbf2899f7f90e9beb6f4e57d1b39117a0264736f6c634300050d0032566f74696e674d616368696e653a2042546f6b656e2063616e6e6f74206265206e756c6c",
  "source": "pragma solidity ^0.5.13;\n\nimport \"@openzeppelin/contracts/math/SafeMath.sol\";\nimport \"openzeppelin-solidity/contracts/utils/ReentrancyGuard.sol\";\nimport \"./utils/interfaces/BToken.sol\";\n\ncontract VotingMachine is ReentrancyGuard {\n    using SafeMath for uint256;\n\n    uint256 private totalStaked;\n    mapping(address => uint256) private balances;\n    BToken public balancerLiquidityToken;\n\n    event Staked(address indexed user, uint256 amount);\n\n    constructor(BToken _bToken) public {\n        require(_bToken != BToken(0), \"VotingMachine: BToken cannot be null\");\n        balancerLiquidityToken = _bToken;\n    }\n\n    function stake(uint256 amount) public nonReentrant {\n        require(amount > 0, \"VotingMachine: cannot stake 0\");\n        totalStaked = totalStaked.add(amount);\n        balances[msg.sender] = balances[msg.sender].add(amount);\n        balancerLiquidityToken.transferFrom(msg.sender, address(this), amount);\n        emit Staked(msg.sender, amount);\n    }\n\n    function balanceOf(address account) public view returns (uint256) {\n        return balances[account];\n    }\n}\n",
  "sourcePath": "/home/jeanjack/BalancerVotingMachine/contracts/VotingMachine.sol",
  "compiler": {
    "name": "solc",
    "version": "0.5.13+commit.5b0b510c.Emscripten.clang"
  },
  "schemaVersion": "3.4.0",
  "updatedAt": "2021-05-08T22:38:27.185Z",
  "devdoc": {
    "methods": {}
  },
  "userdoc": {
    "methods": {}
  }
}