{
  "contractName": "VotingMachine",
  "abi": [
    {
      "inputs": [
        {
          "internalType": "contract BToken",
          "name": "_balancerLPToken",
          "type": "address"
        }
      ],
      "payable": false,
      "stateMutability": "nonpayable",
      "type": "constructor"
    },
    {
      "anonymous": false,
      "inputs": [
        {
          "indexed": true,
          "internalType": "address",
          "name": "user",
          "type": "address"
        },
        {
          "indexed": false,
          "internalType": "uint256",
          "name": "amount",
          "type": "uint256"
        }
      ],
      "name": "Staked",
      "type": "event"
    },
    {
      "anonymous": false,
      "inputs": [
        {
          "indexed": true,
          "internalType": "address",
          "name": "user",
          "type": "address"
        },
        {
          "indexed": false,
          "internalType": "uint256",
          "name": "amount",
          "type": "uint256"
        }
      ],
      "name": "Withdrawn",
      "type": "event"
    },
    {
      "constant": true,
      "inputs": [],
      "name": "balancerLPToken",
      "outputs": [
        {
          "internalType": "contract BToken",
          "name": "",
          "type": "address"
        }
      ],
      "payable": false,
      "stateMutability": "view",
      "type": "function"
    },
    {
      "constant": false,
      "inputs": [
        {
          "internalType": "uint256",
          "name": "amount",
          "type": "uint256"
        }
      ],
      "name": "stake",
      "outputs": [],
      "payable": false,
      "stateMutability": "nonpayable",
      "type": "function"
    },
    {
      "constant": false,
      "inputs": [
        {
          "internalType": "uint256",
          "name": "amount",
          "type": "uint256"
        }
      ],
      "name": "withdraw",
      "outputs": [],
      "payable": false,
      "stateMutability": "nonpayable",
      "type": "function"
    },
    {
      "constant": true,
      "inputs": [
        {
          "internalType": "address",
          "name": "account",
          "type": "address"
        }
      ],
      "name": "balanceOf",
      "outputs": [
        {
          "internalType": "uint256",
          "name": "",
          "type": "uint256"
        }
      ],
      "payable": false,
      "stateMutability": "view",
      "type": "function"
    }
  ],
  "bytecode": "0x608060405234801561001057600080fd5b50604051610aa0380380610aa08339818101604052602081101561003357600080fd5b81019080805190602001909291905050506001600081905550600073ffffffffffffffffffffffffffffffffffffffff168173ffffffffffffffffffffffffffffffffffffffff1614156100d2576040517f08c379a0000000000000000000000000000000000000000000000000000000008152600401808060200182810382526026815260200180610a7a6026913960400191505060405180910390fd5b80600260006101000a81548173ffffffffffffffffffffffffffffffffffffffff021916908373ffffffffffffffffffffffffffffffffffffffff16021790555050610957806101236000396000f3fe608060405234801561001057600080fd5b506004361061004c5760003560e01c80632e1a7d4d1461005157806370a082311461007f578063a694fc3a146100d7578063eeab383314610105575b600080fd5b61007d6004803603602081101561006757600080fd5b810190808035906020019092919050505061014f565b005b6100c16004803603602081101561009557600080fd5b81019080803573ffffffffffffffffffffffffffffffffffffffff16906020019092919050505061041e565b6040518082815260200191505060405180910390f35b610103600480360360208110156100ed57600080fd5b8101908080359060200190929190505050610467565b005b61010d61076a565b604051808273ffffffffffffffffffffffffffffffffffffffff1673ffffffffffffffffffffffffffffffffffffffff16815260200191505060405180910390f35b60016000808282540192505081905550600080549050600082116101db576040517f08c379a00000000000000000000000000000000000000000000000000000000081526004018080602001828103825260208152602001807f566f74696e674d616368696e653a2043616e6e6f74207769746864726177203081525060200191505060405180910390fd5b61022d82600160003373ffffffffffffffffffffffffffffffffffffffff1673ffffffffffffffffffffffffffffffffffffffff1681526020019081526020016000205461079090919063ffffffff16565b600160003373ffffffffffffffffffffffffffffffffffffffff1673ffffffffffffffffffffffffffffffffffffffff16815260200190815260200160002081905550600260009054906101000a900473ffffffffffffffffffffffffffffffffffffffff1673ffffffffffffffffffffffffffffffffffffffff1663a9059cbb33846040518363ffffffff1660e01b8152600401808373ffffffffffffffffffffffffffffffffffffffff1673ffffffffffffffffffffffffffffffffffffffff16815260200182815260200192505050602060405180830381600087803b15801561031957600080fd5b505af115801561032d573d6000803e3d6000fd5b505050506040513d602081101561034357600080fd5b8101908080519060200190929190505050503373ffffffffffffffffffffffffffffffffffffffff167f7084f5476618d8e60b11ef0d7d3f06914655adb8793e28ff7f018d4c76d505d5836040518082815260200191505060405180910390a2600054811461041a576040517f08c379a000000000000000000000000000000000000000000000000000000000815260040180806020018281038252601f8152602001807f5265656e7472616e637947756172643a207265656e7472616e742063616c6c0081525060200191505060405180910390fd5b5050565b6000600160008373ffffffffffffffffffffffffffffffffffffffff1673ffffffffffffffffffffffffffffffffffffffff168152602001908152602001600020549050919050565b60016000808282540192505081905550600080549050600082116104f3576040517f08c379a000000000000000000000000000000000000000000000000000000000815260040180806020018281038252601d8152602001807f566f74696e674d616368696e653a2063616e6e6f74207374616b65203000000081525060200191505060405180910390fd5b61054582600160003373ffffffffffffffffffffffffffffffffffffffff1673ffffffffffffffffffffffffffffffffffffffff168152602001908152602001600020546107da90919063ffffffff16565b600160003373ffffffffffffffffffffffffffffffffffffffff1673ffffffffffffffffffffffffffffffffffffffff16815260200190815260200160002081905550600260009054906101000a900473ffffffffffffffffffffffffffffffffffffffff1673ffffffffffffffffffffffffffffffffffffffff166323b872dd3330856040518463ffffffff1660e01b8152600401808473ffffffffffffffffffffffffffffffffffffffff1673ffffffffffffffffffffffffffffffffffffffff1681526020018373ffffffffffffffffffffffffffffffffffffffff1673ffffffffffffffffffffffffffffffffffffffff1681526020018281526020019350505050602060405180830381600087803b15801561066557600080fd5b505af1158015610679573d6000803e3d6000fd5b505050506040513d602081101561068f57600080fd5b8101908080519060200190929190505050503373ffffffffffffffffffffffffffffffffffffffff167f9e71bc8eea02a63969f509818f2dafb9254532904319f9dbda79b67bd34a5f3d836040518082815260200191505060405180910390a26000548114610766576040517f08c379a000000000000000000000000000000000000000000000000000000000815260040180806020018281038252601f8152602001807f5265656e7472616e637947756172643a207265656e7472616e742063616c6c0081525060200191505060405180910390fd5b5050565b600260009054906101000a900473ffffffffffffffffffffffffffffffffffffffff1681565b60006107d283836040518060400160405280601e81526020017f536166654d6174683a207375627472616374696f6e206f766572666c6f770000815250610862565b905092915050565b600080828401905083811015610858576040517f08c379a000000000000000000000000000000000000000000000000000000000815260040180806020018281038252601b8152602001807f536166654d6174683a206164646974696f6e206f766572666c6f77000000000081525060200191505060405180910390fd5b8091505092915050565b600083831115829061090f576040517f08c379a00000000000000000000000000000000000000000000000000000000081526004018080602001828103825283818151815260200191508051906020019080838360005b838110156108d45780820151818401526020810190506108b9565b50505050905090810190601f1680156109015780820380516001836020036101000a031916815260200191505b509250505060405180910390fd5b506000838503905080915050939250505056fea265627a7a72315820444fb1e127216b4f7c9cb4b0cb5a8530a9091cca4f51d0d5f20f6fd1c8185d4564736f6c634300050d0032566f74696e674d616368696e653a204c5020746f6b656e2063616e6e6f74206265206e756c6c",
  "source": "pragma solidity ^0.5.13;\n\nimport \"@openzeppelin/contracts/math/SafeMath.sol\";\nimport \"openzeppelin-solidity/contracts/utils/ReentrancyGuard.sol\";\nimport \"./utils/interfaces/BToken.sol\";\n\ncontract VotingMachine is ReentrancyGuard {\n    using SafeMath for uint256;\n\n    mapping(address => uint256) private balances;\n    BToken public balancerLPToken;\n\n    event Staked(address indexed user, uint256 amount);\n    event Withdrawn(address indexed user, uint256 amount);\n\n    constructor(BToken _balancerLPToken) public {\n        require(_balancerLPToken != BToken(0), \"VotingMachine: LP token cannot be null\");\n        balancerLPToken = _balancerLPToken;\n    }\n\n    function stake(uint256 amount) public nonReentrant {\n        require(amount > 0, \"VotingMachine: cannot stake 0\");\n        balances[msg.sender] = balances[msg.sender].add(amount);\n        balancerLPToken.transferFrom(msg.sender, address(this), amount);\n        emit Staked(msg.sender, amount);\n    }\n\n    function withdraw(uint256 amount) public nonReentrant {\n        require(amount > 0, \"VotingMachine: Cannot withdraw 0\");\n        balances[msg.sender] = balances[msg.sender].sub(amount);\n        balancerLPToken.transfer(msg.sender, amount);\n        emit Withdrawn(msg.sender, amount);\n    }\n\n    function balanceOf(address account) public view returns (uint256) {\n        return balances[account];\n    }\n}\n",
  "sourcePath": "/home/jeanjack/BalancerVotingMachine/contracts/VotingMachine.sol",
  "compiler": {
    "name": "solc",
    "version": "0.5.13+commit.5b0b510c.Emscripten.clang"
  },
  "schemaVersion": "3.4.0",
  "updatedAt": "2021-05-09T12:24:39.366Z",
  "devdoc": {
    "methods": {}
  },
  "userdoc": {
    "methods": {}
  }
}